:1000030049443A494C493934383820203136424939
:100013005400000000000000000000000000000089
:10002300000000000010101010101010000018182D
:100033000000001236244800000000000000000009
:100043000000000000242424FE484848FE48484895
:10005300000000001038545450301814145454380D
:10006300101000000044A4A8A8A8541A2A2A2A445D
:10007300000000000030484848506EA494888976F8
:10008300000000606020C0000000000000000000CD
:1000930000000002040808101010101010080804D3
:1000A300020000402010100808080808081010205B
:1000B3004000000000001010D63838D610100000A1
:1000C30000000000000010101010FE1010101000AF
:1000D300000000000000000000000000000060605D
:1000E30020C000000000000000007F0000000000AE
:1000F300000000000000000000000000000060603D
:10010300000000000102020404080810102020402F
:100113004000000000182442424242424242241856
:100123000000000000107010101010101010107C50
:1001330000000000003C4242420404081020427EBA
:1001430000000000003C424204180402024244380A
:100153000000000000040C14242444447E04041E04
:1001630000000000007E40404058640202424438D0
:1001730000000000001C24404058644242422418FE
:1001830000000000007E44440808101010101010F6
:1001930000000000003C4242422418244242423CF8
:1001A30000000000001824424242261A02022438AA
:1001B30000000000000000001818000000001818DC
:1001C300000000000000000000100000000000100C
:1001D3001020000000020408102040201008040230
:1001E3000000000000000000FE000000FE00000010
:1001F3000000000000402010080402040810204002
:1002030000000000003C4242620204080800181883
:10021300000000000038445AAAAAAAAAB4424438EB
:1002230000000000001010182828243C444242E734
:100233000000000000F8444444784442424244F839
:1002430000000000003E42428080808080424438AB
:100253000000000000F8444242424242424244F855
:100263000000000000FC424848784848404242FCF5
:100273000000000000FC424848784848404040E005
:1002830000000000003C44448080808E8444443855
:100293000000000000E7424242427E42424242E7FF
:1002A30000000000007C1010101010101010107CC3
:1002B30000000000003E08080808080808080808AD
:1002C30088F0000000EE444850705048484444EE23
:1002D3000000000000E0404040404040404042FEFB
:1002E3000000000000EE6C6C6C6C5454545454D6F3
:1002F3000000000000C7626252524A4A4A4646E280
:100303000000000000384482828282828282443864
:100313000000000000FC424242427C40404040E07A
:10032300000000000038448282828282B2CA4C38C4
:100333000600000000FC4242427C4848444442E339
:1003430000000000003E4242402018040242427C6A
:100353000000000000FE9210101010101010103852
:100363000000000000E74242424242424242423C15
:100373000000000000E742424424242828181010FB
:100383000000000000D692929292AAAA6C444444C0
:100393000000000000E7422424181818242442E730
:1003A3000000000000EE44442828101010101038FC
:1003B30000000000007E840408081020204242FC54
:1003C3000000001E1010101010101010101010104C
:1003D3001E000000404020201010100808040404F0
:1003E300020200780808080808080808080808082E
:1003F3007800001C22000000000000000000000044
:1004030000000000000000000000000000000000E9
:1004130000FF00606020C00000000000000000003A
:100423000000000000000000003C421E2242423F48
:100433000000000000C040404058644242426458FB
:100443000000000000000000001C22404040221C6D
:100453000000000000060202021E22424242261B46
:100463000000000000000000003C427E4040423C8F
:1004730000000000000F1110107E10101010107CEF
:100483000000000000000000003E444438403C42AD
:10049300423C000000C04040405C6242424242E7AE
:1004A3000000000000303000007010101010107CAD
:1004B30000000000000C0C00001C040404040404ED
:1004C3004478000000C04040404E4850684844EE25
:1004D3000000000000701010101010101010107C9D
:1004E300000000000000000000FE4949494949EDB1
:1004F300000000000000000000DC6242424242E7CC
:100503000000000000000000003C42424242423C26
:10051300000000000000000000D86442424244781A
:1005230040E0000000000000001E22424242221E62
:10053300020700000000000000EE3220202020F817
:100543000000000000000000003E42403C02427CEC
:100553000000000000000010107C10101010100CA0
:10056300000000000000000000C642424242463B39
:10057300000000000000000000E7422424281010BF
:10058300000000000000000000D79292AAAA444491
:100593000000000000000000006E241818182476E4
:1005A300000000000000000000E742242428181087
:1005B30010E0000000000000007E44081010227EBE
:1005C30000000003040404040408040404040404F1
:1005D30003000808080808080808080808080808A5
:1005E30008080060101010101008101010101010E0
:1005F3006000304C430000000000000000000000D9
:020603000000F5
:0809C7007F0C7EA9DEFEDFFCBF
:0109CF002205
:040992007FE87E0379
:10099600AD07AC06ED1DAE0470011C4E60051209D4
:0409A600C780F122F3
:10095E008A1C8B1DA907E9FB7A007E008C248D254D
:0A096E00120850AF1DAE1C02094331
:08078C008F118C128D138B14E8
:1007940074E02514F514E4F51AE51AFD7C0025131C
:1007A400FFEC3512FEC3EF9440EE940140030208BF
:1007B40043AF147E00EFC4F8540FC868FFEEC4546E
:1007C400F048FEEF2DFFEC3EFE74152FF582740009
:1007D4003EF583E493F51BE4F519E5112519FFE4CF
:1007E40033FEC3EF94F0EE64809480504974807EAD
:1007F40000A819088006CEA2E713CE13D8F8FF7C10
:1008040000EF551BB50718ECB50614E5112519FFC3
:10081400E51A2513FDEC3512FCAB16AA158014E578
:10082400112519FFE51A7C002513FDEC3512FCABEC
:1008340018AA1712095E0519E519C39408409B0507
:0B0844001AE51AC39410500302079D30
:01084F002286
:1008CE008F088C098D0A8A0B8B0C850C82850B8305
:1008DE00E493FB6025850D15850E16850F17851083
:1008EE0018AD0AAC09AF0812078C74082508F50874
:0B08FE00050CE50C70D4050B80D02227
:10094300AD07AC06D291D293D292C2908C80C29260
:0B095300D2928D80C292D292D29022EC
:090978001209817FF41209AAFFA3
:10098100D291D293D292C2908F80C292D292D290BF
:010991002243
:1009AA00C291D293D292C2908F80C292D292D290A6
:0109BA00221A
:10060500D2947F0A7E00120996C2947F0A7E001258
:100615000996D2947F787E001209967FF77E0012A4
:1006250009AA7FA91209817F511209817F2C12091C
:10063500817F821209817FEC1209AAE4FF120981E8
:100645007F021209810F1209817F7A1209817FC009
:100655001209AA7F131209811209817FC11209AA01
:100665007F411209817FC512097D7F281209817F8B
:10067500801209817FB11209AA1F1209817F111207
:1006850009817FB41209AA7F021209817FB6120976
:10069500AA7F021209817F221209817FB71209AA56
:1006A5007FC61209817FBE12097D7F041209817FF1
:1006B500E91209AAFF1209781209817F0F1209812F
:1006C5007FE012097D7F041209817F0E1209817F67
:1006D500081209817F171209817F0A1209817F405B
:1006E5001209817F791209817F4D1209817F0712D5
:1006F50009817F0E1209817F0A1209817F1A120969
:10070500817F1D1209817F0F1209817FE112097D09
:100715007F1B1209817F1F1209817F021209817FC8
:10072500101209817F051209817F321209817F34F8
:100735001209817F431209817F021209817F0A1202
:1007450009811F1209817F331209817F37120981BF
:100755007F0F1209781209817F0F1209817F3612E6
:1007650009AA7F081209817F3A1209AA7F55120941
:10077500817F111209AA7F781209967F297E0012BE
:0707850009AA7F3202099668
:100850008F828E837F2A7E001209AAE583FF120908
:1008600081AF82120981EAFF120981AF0312098167
:100870007F2B1209AAECFF120981AF05120981E54D
:0F08800024FF120981AF251209817F2C0209AADA
:040909008E088F09BC
:10090D007524017525DF7B3F7A01E4FDFCFFFE12A6
:10091D000850E4FB1A900000AF09AE08120943A37A
:10092D00E582B440F3E583B401EE0BBB00010ABAD6
:05093D0001E3BBE0E056
:010942002292
:10088F001206057F007EF81209091209927FE07E99
:10089F00071209091209927F1F7E00120909120916
:1008AF00927A007B0374FFF50DF50E750F0075102E
:0F08BF001F7D3C7C007F1E1208CE12099280C460
:030000000209BB37
:0C09BB00787FE4F6D8FD75812502088FD6
:00000001FF
