:020000040800F2
:10000000001C0020910100089501000897010008DC
:10001000990100089B0100089D01000800000000F4
:100020000000000000000000000000009F01000828
:10003000A101000800000000A3010008A5010008BC
:10004000A7010008A7010008A7010008A7010008F0
:10005000A7010008A7010008A7010008A7010008E0
:10006000A7010008A7010008A7010008A7010008D0
:10007000A7010008A7010008A7010008A7010008C0
:10008000A7010008A7010008A7010008A7010008B0
:10009000A7010008A7010008A7010008A7010008A0
:1000A000A7010008A7010008A7010008A701000890
:1000B000A7010008A7010008A7010008A701000880
:1000C000A7010008A7010008A7010008A701000870
:1000D000A701000831060008A7010008A7010008D1
:1000E000A7010008A7010008A701000800F002F816
:1000F00000F03AF80AA090E8000C82448344AAF188
:100100000107DA4501D100F02FF8AFF2090EBAE885
:100110000F0013F0010F18BFFB1A43F0010318473B
:10012000B80E0000D80E0000103A24BF78C878C17D
:10013000FAD8520724BF30C830C144BF04680C60ED
:10014000704700000023002400250026103A28BF35
:1001500078C1FBD8520728BF30C148BF0B60704739
:100160001FB51FBD10B510BD00F031F81146FFF7E7
:10017000F7FF00F02BFB00F04FF803B4FFF7F2FF9E
:1001800003BC00F053F8000080F3088870470000BB
:1001900008480047FEE7FEE7FEE7FEE7FEE7FEE76A
:1001A000FEE7FEE7FEE7FEE703480449044A054B85
:1001B00070470000ED000008700C0020001C0020BB
:1001C000700D00200014002070477047704775467E
:1001D00000F028F8AE4605006946534620F00700B7
:1001E000854618B020B5FFF7DFFFBDE820404FF08F
:1001F00000064FF000074FF000084FF0000B21F011
:100200000701AC46ACE8C009ACE8C009ACE8C009DD
:10021000ACE8C0098D4670470446AFF30080204625
:10022000FFF7ABFF004870470C0C00200149182075
:10023000ABBEFEE7260002007047000000B50020BC
:1002400015490861C8601420486100208861C861B0
:100250000846006840F001000860084640680F4901
:1002600008400D494860084600680D4908400A49A1
:1002700008600846006820F480200860084640684E
:1002800020F4FE0048600020886000214FF00060EC
:1002900000F058F800BD0000001002400000FFF818
:1002A000FFFFF6FE2DE9F0410746884614461D463D
:1002B000284600F033F8C5F1040007FA00F60F20D5
:1002C000284100EA0800064306F00F06E21704EB97
:1002D000D2625211920002F1E022D2F800212146AE
:1002E000E31704EBD3635B11A4EB431C012303FA74
:1002F0000CF31A432046E31704EBD3635B119B0016
:1003000003F1E023C3F800210348005D40EA061032
:1003100001490855BDE8F08100E400E001460723EB
:1003200023EA01021202054B18684FF6FF0318403A
:10033000034B18431043014B186070470CED00E06D
:100340000000FA05024A0A400243024B1A60704755
:1003500080FFFF1F08ED00E070B50546002445F65C
:10036000FF7000F05FF80446C4B90D48006940F022
:1003700002000B49086108464561006940F04000F1
:10038000086145F6FF7000F04DF80446012C05D0D9
:100390000348006920F0020001490861204670BD51
:1003A000002002400948C16801F0010008B10120A5
:1003B000704701F0040008B10220F9E701F01000D5
:1003C00008B10320F4E70020F2E70000002002401B
:1003D0000348006940F0800001490861704700004F
:1003E0000020024030B503460C461546002207E0C7
:1003F000184600F008F824F812009B1C501C82B22A
:10040000AA42F5DB30BD014608887047024803491F
:100410004860034848607047230167450020024058
:10042000AB89EFCD70B5044600BFFFF7BBFF0546B3
:10043000012D00D006E0012000F060F9601E84B2BA
:10044000002CF2D100BF04B9FF25284670BD000082
:100450002DE9F05F80468A461746B8F1006F02D357
:100460003348804501D3BDE8F09FFFF7CFFFA8F1E7
:10047000006B4FEA9B25CBF34809C9F50074A742EE
:1004800000DC3C464EE04FF0006101EB85208A1411
:100490002849FFF7A7FF00260BE009EB06002549D6
:1004A00031F810004FF6FF71884200D003E0701C55
:1004B00086B2A642F1DB00BFA6421BDA4FF0006114
:1004C00001EB8520FFF748FF002608E03AF8160008
:1004D00006EB0901174A22F81100701C86B2A642E9
:1004E000F4DB4FF0006101EB85208A14114900F024
:1004F00043F804E022465146404600F03DF8A7424A
:1005000000D110E06D1C4FF000090AEB440A08EB23
:100510004408381B87B2B7F5007F02DD4FF4007442
:1005200000E03C46AFE700BFFFF752FF00BF9AE78D
:10053000000002080C00002070B505460E46FF20A2
:10054000FFF770FF044694B90A48006940F00100C3
:10055000084908612E80FF20FFF764FF0446012C44
:1005600005D00448006920F00100024908612046D6
:1005700070BD0000002002402DE9F04105460E4606
:100580001746002407E036F814102846FFF7D4FF7A
:10059000AD1C601C84B2BC42F5DBBDE8F0810000FC
:1005A00030B504460025FFF749FE1F48006840F4B7
:1005B00080301D49086000BF1B480068400C0028BF
:1005C000FAD04FF4806018494860A01EC4B20846B3
:1005D000406840EA844048600846406840F4803003
:1005E00048601248006840F03200104908600E4828
:1005F000006840F080700C49086000BF0A4800683D
:10060000400E0028FAD00848406840F00200064931
:10061000486005E004484068C0F3870505F003051D
:10062000022DF7D130BD0000001002400020024032
:100630000949098801F0200161B10749091D0988AC
:10064000C8B20649064A1288885405490988491CD7
:10065000034A11807047000000380140001000205C
:10066000040000200549088000BF0449091F0988CB
:1006700001F040010029F8D0704700000438014023
:100680004FF0E021096921F004014FF0E0221161EF
:10069000C21700EB5272C2F3C702074B1A70194619
:1006A000097801EB4102C2EBC1114FF6FF7202EA79
:1006B000C101024A118070470000002002000020A2
:1006C00001460D4A12884A434FF0E0235A61002246
:1006D0009A6101221A6100BF4FF0E022106900F018
:1006E00001021AB100F48032002AF5D000224FF046
:1006F000E0231A619A6170470200002001460D4A0A
:1007000012784A434FF0E0235A6100229A61012295
:100710001A6100BF4FF0E022106900F001021AB127
:1007200000F48032002AF5D000224FF0E0231A6155
:100730009A6170470000002010B504462068074900
:100740000840B0F1005F08D1606805490860206882
:10075000FFF71AFD02480068804710BD0000FE2F19
:10076000080000202DE9F05F06460F469046002461
:10077000B3463D46A1461CE068784FEA002A287837
:1007800050441FFA80FAAD1C2046611C8CB20E4901
:1007900021F810A0B4F5806F07D100244FF48062D7
:1007A0005846FFF755FE0BF5006B09F102001FFAE2
:1007B00080F9C145E0D324B1224603495846FFF7EA
:1007C00047FEBDE8F09F00000C0400200025002635
:1007D000A846002400270920FFF7E2FE4FF4E1318C
:1007E000482000F0E7F84820FFF74AFFDAE06E48BB
:1007F000008800286FD0002755BB6C48007844283B
:1008000022D10120FFF75CFF684840784D2817D1BE
:1008100066488078462813D1002063490880012566
:10082000A120FFF71FFFA220FFF71CFFA320FFF767
:1008300019FF2A20FFF716FF1A20FFF713FFB1E078
:10084000002059490880ADE0002057490880A9E000
:10085000012D45D155480078B1283DD10120FFF741
:100860002FFF52484078B22831D150488078B328C1
:100870002DD14E48C0791B2829D14C48007A2B280D
:1008800025D14A48407A3B2821D148480179C0788F
:1008900001EB002086B245488179407901EB0020C8
:1008A0001FFA80F800204049088002250024B1206A
:1008B000FFF7D8FEB220FFF7D5FEB320FFF7D2FE38
:1008C0002B20FFF7CFFE1B20FFF7CCFE6AE00020B5
:1008D0003549088066E053E000203349088061E034
:1008E000022D5FD1B44220DA2F480088B0F5806F26
:1008F00058DB2F4901EB84204A142C49FFF732FFC3
:10090000601C84B2002028490880C120FFF7AAFE9D
:10091000C220FFF7A7FEC320FFF7A4FE2C20FFF79D
:10092000A1FE1C20FFF79EFE3CE01F4800884045CA
:1009300038DB1F4901EB86201B490A881B49FFF75A
:1009400011FF1B48406800F07F40B0F1006F12D1EA
:10095000D120FFF787FED220FFF784FED320FFF7D8
:1009600081FE2D20FFF77EFE1D20FFF77BFE104845
:10097000FFF7E2FE16E000200B490880002511E099
:100980000120FFF79DFE781C87B2642F0ADB002749
:100990000748406800F07F40B0F1006F02D1044882
:1009A000FFF7CAFE23E7000004000020001000202B
:1009B000001000082DE9F05F05460E46300100F0FA
:1009C000ABF981462E4905FB01F000F0A5F98246FE
:1009D000494600F0BFF80746384600F07DF984B27A
:1009E000204600F099F98346394600F075FA8246B0
:1009F0004FF0834100F0A4F9814600F06DF9804684
:100A00004FF6FF7000EA041404EB080084B21D489E
:100A1000806940F004001B4988610846806940F401
:100A2000804088611848006820F47F60164908609B
:100A30000846006840F40B6008601248C06840F443
:100A400080401049C8600846C06820F48040C860F3
:100A50000E480480001D008842F20C0108430B4937
:100A6000091D08800846008840F020000880022305
:100A7000252203210846FFF715FCBDE8F09F000082
:100A800040420F00001002400408014008380140B5
:100A900090EA010F48BF81F0004100F12E82421A16
:100AA0003CBF801A89184FEAD0524FF07F4C1CEAA5
:100AB000410FA2EBD15318BF9CEA026F00F03B80BC
:100AC0004FF0004C4CEA00204CEA012121FA03FCD3
:100AD00010EB0C0C1ED202F1FF325FEA1C2040EB3F
:100AE000C25038BF70471CF07F0F4FEA400C18BF50
:100AF000BCF17F4F38BF7047C3F12003994008BF56
:100B000020F00100BCF17F4F38BF7047A0F1C0401A
:100B100000F0DDB94FEA3C00000A40EBC25028BFAC
:100B20001CF0FF0F4FEA400CE6D018BFBCF17F4F1E
:100B300038BF7047EAE79CEA026F05D010EA5C0F05
:100B400008BF00F00040704710B500F07AF900BF10
:100B500064FBBE3E4FF47F0C1CEAD0121EBF1CEAA1
:100B6000D11392EA0C0F93EA0C0F00F0858090EA03
:100B7000010F48BF42F4807240F4000C41F40000C1
:100B80002CF07F4120F07F4000B58142A2EB0302B0
:100B90000FF2081CACEB504EC0F100009EF800E0D4
:100BA0004FEA4E0E00FB0EFC38BF49004FEA2C1CEA
:100BB00002F5FA020CFB0EF34FEACE1E4FEA112C9F
:100BC0004FEAC1210EEB635E42EB22420EFB0CFCAE
:100BD0004FEA1C5300FB03114FEA112C4FEA01317D
:100BE0000EFB0CFC4FEADC4C00FB0C11C14228BF91
:100BF00009184CEB03335DF804EB10EB410143EBB8
:100C0000C250B2F57C0F38BF704729D512F0F00FF3
:100C10001CBF00F1C04000F000407047008182839B
:100C20008485868788898B8C8D8E8F9192939596FB
:100C300097999A9C9D9FA0A2A3A5A7A8AAACAEB085
:100C4000B2B3B5B7B9BCBEC0C2C5C7C9CCCED1D48A
:100C5000D7D9DCDFE2E6E9ECF0F3F7FAFE000000BA
:100C60004FEA400C0CF1807CBCF17E4F28BF7047EE
:100C7000B0F1C04000F02BB990EA010F0CEAD1139B
:100C800048BF42F48072624538BF634507D213F40F
:100C90007F0F16D080EA010000F00040704710B5C9
:100CA00000F0CFF8097EFC3E00F005B880EA0100B4
:100CB00000F00040704780EA010000F0004000F0C2
:100CC00006B912F47F0F04BF0248704780EA0100A2
:100CD00000F0FDB80000C07FC10DD1F19E0206DB1F
:100CE0004FEA002343F0004323FA02F0704700422A
:100CF00007D54FEA4001B1F1FE4F02D24FF000009C
:100D0000704710B500F09DF849922480002070478C
:100D10006FEA200070470000B0FA80F310FA03F287
:100D2000C3F19D030AD0D90501EB1220530638BF49
:100D3000704700F1010008BF20F00100704700007B
:100D40004FF47F0C1CEAD0121EBF1CEAD11392EAAA
:100D50000C0F93EA0C0F00F0478090EA010F48BF98
:100D600042F480724FF0004C4CEA00204CEA012122
:100D700002EB0302A0FB0113A2F50002002918BF39
:100D800043F001035B0028BF4FEA330342EB2242EA
:100D90005FEA132C4CEBC2502EBFBCEB436FB2F595
:100DA0007C0F70474FEA036CBCF1004F08BF20F086
:100DB0000100B2F57C0F38BF70470BD582F0FF02FF
:100DC00012F5803FC8BF704700F1C040D8BF00F0A7
:100DD0000040704700F5000C5FEA4C0C48BF7047BC
:100DE000B0F1C04000F073B890EA010F0CEAD113E3
:100DF00048BF42F48072624538BF634504D280EA3E
:100E0000010000F00040704710B500F01AF800BF74
:100E10008900013E00F007B800F009B85FEA410C14
:100E20005FEA1C6C08D080EA010000F050B85FEA6D
:100E3000400C5FEA1C6CF6D14FF00040A0F580003A
:100E400070470EF1020E2EF0030E5EF8044B2442A2
:100E500004D44FEA4102B2F17F4F11D84FEA400368
:100E6000B3F17F4F0CD80ED14FEAD07CB2F17F4F57
:100E70000CEB4C0C0CF1020C08BF4CEBD17C04E0E9
:100E80004FF0080C01E04FEAD17C0CEB4C0324FA44
:100E900003F404F00704B4F1040C06D20EEB840C46
:100EA000BDE810404CF0010C6047DFE80CF007088B
:100EB00002024FF00040A0F5800010BD084642003D
:100EC00018BFD2F1807288BF00F0004010BDFF2132
:100ED00041EAD050C005704780F0004090EA010F11
:100EE0007FF5DDAD81F0004100F007B890EA010F19
:100EF00048BF81F000413FF5D2AD421A04D882F0DC
:100F00000042A0EB020011444FEAD0524FF07F4C58
:100F10001CEA410FA2EBD15318BF9CEA026F4AD0E2
:100F20004FF0004C4CEA00204CEA012121FA03FC6E
:100F3000B0EB0C0C0FD412F0FE0F36D05FEA4C0071
:100F40001DD5001240EBC25038BF70471CF03F0F58
:100F500018BF70470BE0A2F101025FEA1C2040EBD2
:100F6000C25038BF70471CF07F0F18BF7047C3F1E5
:100F70002003994014BF401E20F0010070478008F4
:100F80004FEA122308BF7047B0FA80FCA2EB0C02B4
:100F9000CCF1280C60FA0CF093EA122F04BF00EB9E
:100FA000C25070474FEAC3707047130A5FEADC1003
:100FB00008BF7047F6E79CEA026F04D010EA5C0FA6
:100FC00008BF0020704710B5FFF73BFF40DFF63E3B
:100FD00081F0004070470000F80F0008000000207A
:100FE0000C00000028010008041000080C0000207C
:100FF000F41B000044010008000000000000000095
:0410000000000000EC
:04000005080000ED02
:00000001FF
